{
  "contractName": "DAPP",
  "abi": [
    {
      "constant": true,
      "inputs": [],
      "name": "totalCampaigns",
      "outputs": [
        {
          "name": "",
          "type": "uint256"
        }
      ],
      "payable": false,
      "stateMutability": "view",
      "type": "function"
    },
    {
      "constant": true,
      "inputs": [],
      "name": "name",
      "outputs": [
        {
          "name": "_name",
          "type": "string"
        }
      ],
      "payable": false,
      "stateMutability": "pure",
      "type": "function"
    },
    {
      "constant": false,
      "inputs": [
        {
          "name": "_to",
          "type": "address"
        },
        {
          "name": "_tokenId",
          "type": "uint256"
        }
      ],
      "name": "approve",
      "outputs": [],
      "payable": false,
      "stateMutability": "nonpayable",
      "type": "function"
    },
    {
      "constant": true,
      "inputs": [],
      "name": "campaignEscrowAmount",
      "outputs": [
        {
          "name": "",
          "type": "uint256"
        }
      ],
      "payable": false,
      "stateMutability": "view",
      "type": "function"
    },
    {
      "constant": true,
      "inputs": [],
      "name": "totalSupply",
      "outputs": [
        {
          "name": "",
          "type": "uint256"
        }
      ],
      "payable": false,
      "stateMutability": "view",
      "type": "function"
    },
    {
      "constant": false,
      "inputs": [
        {
          "name": "_campaignId",
          "type": "uint256"
        }
      ],
      "name": "readyCampaign",
      "outputs": [],
      "payable": false,
      "stateMutability": "nonpayable",
      "type": "function"
    },
    {
      "constant": true,
      "inputs": [
        {
          "name": "_tokenId",
          "type": "uint256"
        }
      ],
      "name": "approvedFor",
      "outputs": [
        {
          "name": "",
          "type": "address"
        }
      ],
      "payable": false,
      "stateMutability": "view",
      "type": "function"
    },
    {
      "constant": true,
      "inputs": [
        {
          "name": "_owner",
          "type": "address"
        }
      ],
      "name": "getTotalCampaignsForOwner",
      "outputs": [
        {
          "name": "total",
          "type": "uint256"
        }
      ],
      "payable": false,
      "stateMutability": "view",
      "type": "function"
    },
    {
      "constant": true,
      "inputs": [
        {
          "name": "",
          "type": "address"
        }
      ],
      "name": "campaignOwnerTotalCampaigns",
      "outputs": [
        {
          "name": "",
          "type": "uint256"
        }
      ],
      "payable": false,
      "stateMutability": "view",
      "type": "function"
    },
    {
      "constant": true,
      "inputs": [],
      "name": "founderAddress",
      "outputs": [
        {
          "name": "",
          "type": "address"
        }
      ],
      "payable": false,
      "stateMutability": "view",
      "type": "function"
    },
    {
      "constant": false,
      "inputs": [
        {
          "name": "_campaignId",
          "type": "uint256"
        }
      ],
      "name": "activateCampaign",
      "outputs": [],
      "payable": false,
      "stateMutability": "nonpayable",
      "type": "function"
    },
    {
      "constant": true,
      "inputs": [
        {
          "name": "_id",
          "type": "uint256"
        }
      ],
      "name": "getCampaign",
      "outputs": [
        {
          "name": "owner",
          "type": "address"
        },
        {
          "name": "campaignName",
          "type": "string"
        },
        {
          "name": "taxId",
          "type": "string"
        },
        {
          "name": "active",
          "type": "bool"
        },
        {
          "name": "veto",
          "type": "bool"
        },
        {
          "name": "ready",
          "type": "bool"
        }
      ],
      "payable": false,
      "stateMutability": "view",
      "type": "function"
    },
    {
      "constant": true,
      "inputs": [
        {
          "name": "_owner",
          "type": "address"
        }
      ],
      "name": "tokensOf",
      "outputs": [
        {
          "name": "",
          "type": "uint256[]"
        }
      ],
      "payable": false,
      "stateMutability": "view",
      "type": "function"
    },
    {
      "constant": false,
      "inputs": [
        {
          "name": "_campaignEscrowAmount",
          "type": "uint64"
        }
      ],
      "name": "changeEscrowAmount",
      "outputs": [],
      "payable": false,
      "stateMutability": "nonpayable",
      "type": "function"
    },
    {
      "constant": true,
      "inputs": [
        {
          "name": "_tokenId",
          "type": "uint256"
        }
      ],
      "name": "ownerOf",
      "outputs": [
        {
          "name": "",
          "type": "address"
        }
      ],
      "payable": false,
      "stateMutability": "view",
      "type": "function"
    },
    {
      "constant": false,
      "inputs": [
        {
          "name": "_campaignId",
          "type": "uint256"
        },
        {
          "name": "_supply",
          "type": "uint256"
        },
        {
          "name": "_name",
          "type": "string"
        },
        {
          "name": "_price",
          "type": "uint256"
        }
      ],
      "name": "createCertificate",
      "outputs": [
        {
          "name": "",
          "type": "uint256"
        }
      ],
      "payable": false,
      "stateMutability": "nonpayable",
      "type": "function"
    },
    {
      "constant": false,
      "inputs": [
        {
          "name": "_campaignId",
          "type": "uint256"
        },
        {
          "name": "_certificateIdx",
          "type": "uint256"
        },
        {
          "name": "_supply",
          "type": "uint256"
        },
        {
          "name": "_name",
          "type": "string"
        },
        {
          "name": "_price",
          "type": "uint256"
        }
      ],
      "name": "updateCertificate",
      "outputs": [],
      "payable": false,
      "stateMutability": "nonpayable",
      "type": "function"
    },
    {
      "constant": true,
      "inputs": [
        {
          "name": "_owner",
          "type": "address"
        }
      ],
      "name": "balanceOf",
      "outputs": [
        {
          "name": "",
          "type": "uint256"
        }
      ],
      "payable": false,
      "stateMutability": "view",
      "type": "function"
    },
    {
      "constant": true,
      "inputs": [],
      "name": "maxCertificates",
      "outputs": [
        {
          "name": "",
          "type": "uint256"
        }
      ],
      "payable": false,
      "stateMutability": "view",
      "type": "function"
    },
    {
      "constant": true,
      "inputs": [
        {
          "name": "_campaignId",
          "type": "uint256"
        },
        {
          "name": "_certificateIdx",
          "type": "uint64"
        }
      ],
      "name": "getCertificate",
      "outputs": [
        {
          "name": "campaignId",
          "type": "uint256"
        },
        {
          "name": "supply",
          "type": "uint64"
        },
        {
          "name": "remaining",
          "type": "uint64"
        },
        {
          "name": "name",
          "type": "string"
        },
        {
          "name": "price",
          "type": "uint256"
        }
      ],
      "payable": false,
      "stateMutability": "view",
      "type": "function"
    },
    {
      "constant": true,
      "inputs": [],
      "name": "owner",
      "outputs": [
        {
          "name": "",
          "type": "address"
        }
      ],
      "payable": false,
      "stateMutability": "view",
      "type": "function"
    },
    {
      "constant": true,
      "inputs": [
        {
          "name": "",
          "type": "uint256"
        }
      ],
      "name": "campaignCertificateCount",
      "outputs": [
        {
          "name": "",
          "type": "uint256"
        }
      ],
      "payable": false,
      "stateMutability": "view",
      "type": "function"
    },
    {
      "constant": true,
      "inputs": [
        {
          "name": "",
          "type": "address"
        },
        {
          "name": "",
          "type": "uint256"
        }
      ],
      "name": "campaignOwnerToIndexes",
      "outputs": [
        {
          "name": "",
          "type": "uint256"
        }
      ],
      "payable": false,
      "stateMutability": "view",
      "type": "function"
    },
    {
      "constant": true,
      "inputs": [],
      "name": "symbol",
      "outputs": [
        {
          "name": "_symbol",
          "type": "string"
        }
      ],
      "payable": false,
      "stateMutability": "pure",
      "type": "function"
    },
    {
      "constant": true,
      "inputs": [
        {
          "name": "",
          "type": "uint256"
        },
        {
          "name": "",
          "type": "uint256"
        }
      ],
      "name": "campaignCertificates",
      "outputs": [
        {
          "name": "campaignId",
          "type": "uint256"
        },
        {
          "name": "price",
          "type": "uint256"
        },
        {
          "name": "supply",
          "type": "uint256"
        },
        {
          "name": "remaining",
          "type": "uint256"
        },
        {
          "name": "name",
          "type": "string"
        }
      ],
      "payable": false,
      "stateMutability": "view",
      "type": "function"
    },
    {
      "constant": false,
      "inputs": [
        {
          "name": "_to",
          "type": "address"
        },
        {
          "name": "_tokenId",
          "type": "uint256"
        }
      ],
      "name": "transfer",
      "outputs": [],
      "payable": false,
      "stateMutability": "nonpayable",
      "type": "function"
    },
    {
      "constant": false,
      "inputs": [
        {
          "name": "_maxCertificates",
          "type": "uint256"
        }
      ],
      "name": "changeMaxCertificates",
      "outputs": [],
      "payable": false,
      "stateMutability": "nonpayable",
      "type": "function"
    },
    {
      "constant": false,
      "inputs": [
        {
          "name": "_campaignId",
          "type": "uint256"
        }
      ],
      "name": "withdrawCampaignBalance",
      "outputs": [],
      "payable": false,
      "stateMutability": "nonpayable",
      "type": "function"
    },
    {
      "constant": false,
      "inputs": [
        {
          "name": "_campaignId",
          "type": "uint256"
        }
      ],
      "name": "vetoCampaign",
      "outputs": [],
      "payable": false,
      "stateMutability": "nonpayable",
      "type": "function"
    },
    {
      "constant": false,
      "inputs": [
        {
          "name": "_tokenId",
          "type": "uint256"
        }
      ],
      "name": "takeOwnership",
      "outputs": [],
      "payable": false,
      "stateMutability": "nonpayable",
      "type": "function"
    },
    {
      "constant": true,
      "inputs": [
        {
          "name": "",
          "type": "uint256"
        }
      ],
      "name": "campaignBalance",
      "outputs": [
        {
          "name": "",
          "type": "uint256"
        }
      ],
      "payable": false,
      "stateMutability": "view",
      "type": "function"
    },
    {
      "constant": true,
      "inputs": [],
      "name": "totalRaised",
      "outputs": [
        {
          "name": "",
          "type": "uint256"
        }
      ],
      "payable": false,
      "stateMutability": "view",
      "type": "function"
    },
    {
      "constant": true,
      "inputs": [
        {
          "name": "",
          "type": "uint256"
        }
      ],
      "name": "campaignIndexToOwner",
      "outputs": [
        {
          "name": "",
          "type": "address"
        }
      ],
      "payable": false,
      "stateMutability": "view",
      "type": "function"
    },
    {
      "constant": false,
      "inputs": [
        {
          "name": "_campaignId",
          "type": "uint128"
        },
        {
          "name": "_certificateIdx",
          "type": "uint256"
        }
      ],
      "name": "createToken",
      "outputs": [
        {
          "name": "",
          "type": "uint256"
        }
      ],
      "payable": true,
      "stateMutability": "payable",
      "type": "function"
    },
    {
      "constant": true,
      "inputs": [
        {
          "name": "_id",
          "type": "uint256"
        }
      ],
      "name": "getToken",
      "outputs": [
        {
          "name": "campaignId",
          "type": "uint256"
        },
        {
          "name": "value",
          "type": "uint256"
        },
        {
          "name": "unitNumber",
          "type": "uint256"
        },
        {
          "name": "purchaser",
          "type": "address"
        },
        {
          "name": "certificateIdx",
          "type": "uint256"
        }
      ],
      "payable": false,
      "stateMutability": "view",
      "type": "function"
    },
    {
      "constant": true,
      "inputs": [
        {
          "name": "_campaignId",
          "type": "uint256"
        }
      ],
      "name": "getCampaignBalance",
      "outputs": [
        {
          "name": "",
          "type": "uint256"
        }
      ],
      "payable": false,
      "stateMutability": "view",
      "type": "function"
    },
    {
      "constant": false,
      "inputs": [
        {
          "name": "newOwner",
          "type": "address"
        }
      ],
      "name": "transferOwnership",
      "outputs": [],
      "payable": false,
      "stateMutability": "nonpayable",
      "type": "function"
    },
    {
      "constant": false,
      "inputs": [
        {
          "name": "_campaignName",
          "type": "string"
        },
        {
          "name": "_taxid",
          "type": "string"
        }
      ],
      "name": "createCampaign",
      "outputs": [
        {
          "name": "",
          "type": "uint256"
        }
      ],
      "payable": true,
      "stateMutability": "payable",
      "type": "function"
    },
    {
      "constant": true,
      "inputs": [
        {
          "name": "_owner",
          "type": "address"
        },
        {
          "name": "_index",
          "type": "uint256"
        }
      ],
      "name": "getCampaignIdByOwnerIndex",
      "outputs": [
        {
          "name": "id",
          "type": "uint256"
        }
      ],
      "payable": false,
      "stateMutability": "view",
      "type": "function"
    },
    {
      "inputs": [],
      "payable": false,
      "stateMutability": "nonpayable",
      "type": "constructor"
    },
    {
      "anonymous": false,
      "inputs": [
        {
          "indexed": false,
          "name": "campaignId",
          "type": "uint256"
        }
      ],
      "name": "ReadyCampaign",
      "type": "event"
    },
    {
      "anonymous": false,
      "inputs": [
        {
          "indexed": false,
          "name": "campaignId",
          "type": "uint256"
        }
      ],
      "name": "ActivateCampaign",
      "type": "event"
    },
    {
      "anonymous": false,
      "inputs": [
        {
          "indexed": false,
          "name": "campaignId",
          "type": "uint256"
        }
      ],
      "name": "VetoCampaign",
      "type": "event"
    },
    {
      "anonymous": false,
      "inputs": [
        {
          "indexed": true,
          "name": "owner",
          "type": "address"
        },
        {
          "indexed": true,
          "name": "campaignId",
          "type": "uint256"
        }
      ],
      "name": "CreateCampaign",
      "type": "event"
    },
    {
      "anonymous": false,
      "inputs": [
        {
          "indexed": true,
          "name": "campaignId",
          "type": "uint256"
        },
        {
          "indexed": false,
          "name": "name",
          "type": "string"
        }
      ],
      "name": "CreateCertificate",
      "type": "event"
    },
    {
      "anonymous": false,
      "inputs": [
        {
          "indexed": true,
          "name": "campaignId",
          "type": "uint256"
        },
        {
          "indexed": true,
          "name": "certificateIdx",
          "type": "uint256"
        }
      ],
      "name": "UpdateCertificate",
      "type": "event"
    },
    {
      "anonymous": false,
      "inputs": [
        {
          "indexed": true,
          "name": "campaignId",
          "type": "uint256"
        },
        {
          "indexed": true,
          "name": "certificateIdx",
          "type": "uint256"
        },
        {
          "indexed": false,
          "name": "owner",
          "type": "address"
        }
      ],
      "name": "CreateToken",
      "type": "event"
    },
    {
      "anonymous": false,
      "inputs": [
        {
          "indexed": true,
          "name": "campaignId",
          "type": "uint256"
        },
        {
          "indexed": false,
          "name": "balance",
          "type": "uint256"
        }
      ],
      "name": "WithdrawBalance",
      "type": "event"
    },
    {
      "anonymous": false,
      "inputs": [
        {
          "indexed": true,
          "name": "previousOwner",
          "type": "address"
        },
        {
          "indexed": true,
          "name": "newOwner",
          "type": "address"
        }
      ],
      "name": "OwnershipTransferred",
      "type": "event"
    },
    {
      "anonymous": false,
      "inputs": [
        {
          "indexed": true,
          "name": "_from",
          "type": "address"
        },
        {
          "indexed": true,
          "name": "_to",
          "type": "address"
        },
        {
          "indexed": false,
          "name": "_tokenId",
          "type": "uint256"
        }
      ],
      "name": "Transfer",
      "type": "event"
    },
    {
      "anonymous": false,
      "inputs": [
        {
          "indexed": true,
          "name": "_owner",
          "type": "address"
        },
        {
          "indexed": true,
          "name": "_approved",
          "type": "address"
        },
        {
          "indexed": false,
          "name": "_tokenId",
          "type": "uint256"
        }
      ],
      "name": "Approval",
      "type": "event"
    }
  ],
  "bytecode": "0x606060405260646009556000601055600060115534156200001f57600080fd5b33600560006101000a81548173ffffffffffffffffffffffffffffffffffffffff021916908373ffffffffffffffffffffffffffffffffffffffff16021790555033600660006101000a81548173ffffffffffffffffffffffffffffffffffffffff021916908373ffffffffffffffffffffffffffffffffffffffff16021790555062000107336040805190810160405280601081526020017f47656e657369732043616d706169676e000000000000000000000000000000008152506020604051908101604052806000815250620001906401000000000262002d03176401000000009004565b5062000162600060016040805190810160405280601381526020017f47656e65736973204365727469666963617465000000000000000000000000008152506000620004d864010000000002620026cc176401000000009004565b50620001896000806000336000620006936401000000000262002b1e176401000000009004565b5062000f92565b60006200019c62000b6e565b600060c0604051908101604052808773ffffffffffffffffffffffffffffffffffffffff1681526020018681526020018581526020016000151581526020016000151581526020016000151581525091506007805480600101828162000203919062000bd1565b9160005260206000209060040201600084909190915060008201518160000160006101000a81548173ffffffffffffffffffffffffffffffffffffffff021916908373ffffffffffffffffffffffffffffffffffffffff16021790555060208201518160010190805190602001906200027e92919062000c06565b5060408201518160020190805190602001906200029d92919062000c06565b5060608201518160030160006101000a81548160ff02191690831515021790555060808201518160030160016101000a81548160ff02191690831515021790555060a08201518160030160026101000a81548160ff0219169083151502179055505050905062000326600182620008a464010000000002620026b3179091906401000000009004565b905085600a600083815260200190815260200160002060006101000a81548173ffffffffffffffffffffffffffffffffffffffff021916908373ffffffffffffffffffffffffffffffffffffffff160217905550600b60008773ffffffffffffffffffffffffffffffffffffffff1673ffffffffffffffffffffffffffffffffffffffff1681526020019081526020016000208054806001018281620003cd919062000c8d565b916000526020600020900160008390919091505550620004456001600c60008973ffffffffffffffffffffffffffffffffffffffff1673ffffffffffffffffffffffffffffffffffffffff16815260200190815260200160002054620008be6401000000000262002abf179091906401000000009004565b600c60008873ffffffffffffffffffffffffffffffffffffffff1673ffffffffffffffffffffffffffffffffffffffff16815260200190815260200160002081905550808673ffffffffffffffffffffffffffffffffffffffff167f8947cb78db2ffa53132a4e627ea0e20920cf6edd68b7b07989687e1a28e0bac760405160405180910390a380925050509392505050565b6000620004e462000cbc565b600060a060405190810160405280888152602001858152602001878152602001878152602001868152509150600e6000888152602001908152602001600020805480600101828162000537919062000cf4565b916000526020600020906005020160008490919091506000820151816000015560208201518160010155604082015181600201556060820151816003015560808201518160040190805190602001906200059392919062000c06565b5050509050620005cf6001600f60008a815260200190815260200160002054620008be6401000000000262002abf179091906401000000009004565b600f600089815260200190815260200160002081905550867fbcc78462243df19ab0f6e9bff38bc47cc381cc4600d2e33e08232d5f78e0e893866040518080602001828103825283818151815260200191508051906020019080838360005b838110156200064b5780820151818401526020810190506200062e565b50505050905090810190601f168015620006795780820380516001836020036101000a031916815260200191505b509250505060405180910390a28092505050949350505050565b60006200069f62000d29565b60008060a0604051908101604052808a81526020018681526020018773ffffffffffffffffffffffffffffffffffffffff168152602001888152602001898152509250600e60008a8152602001908152602001600020888154811015156200070357fe5b90600052602060002090600502016003015491506200073b600183620008a464010000000002620026b3179091906401000000009004565b600e60008b8152602001908152602001600020898154811015156200075c57fe5b9060005260206000209060050201600301819055506008805480600101828162000787919062000d6f565b91600052602060002090600502016000859091909150600082015181600001556020820151816001015560408201518160020160006101000a81548173ffffffffffffffffffffffffffffffffffffffff021916908373ffffffffffffffffffffffffffffffffffffffff160217905550606082015181600301556080820151816004015550509050620008308682620008dd64010000000002620034fd176401000000009004565b87897f3ffd4886872bbfb79239c94b42e59f56b5e810f72259627f1af658ccc35bc8fb88604051808273ffffffffffffffffffffffffffffffffffffffff1673ffffffffffffffffffffffffffffffffffffffff16815260200191505060405180910390a380935050505095945050505050565b6000828211151515620008b357fe5b818303905092915050565b6000808284019050838110151515620008d357fe5b8091505092915050565b600073ffffffffffffffffffffffffffffffffffffffff168273ffffffffffffffffffffffffffffffffffffffff16141515156200091a57600080fd5b6200093a82826200098e6401000000000262003392176401000000009004565b8173ffffffffffffffffffffffffffffffffffffffff1660007fddf252ad1be2c89b69c2b068fc378daa952ba7f163c4a11628f55a4df523b3ef836040518082815260200191505060405180910390a35050565b60008073ffffffffffffffffffffffffffffffffffffffff166001600084815260200190815260200160002060009054906101000a900473ffffffffffffffffffffffffffffffffffffffff1673ffffffffffffffffffffffffffffffffffffffff16141515620009fe57600080fd5b826001600084815260200190815260200160002060006101000a81548173ffffffffffffffffffffffffffffffffffffffff021916908373ffffffffffffffffffffffffffffffffffffffff16021790555062000a6f8362000b226401000000000262001ab6176401000000009004565b9050600360008473ffffffffffffffffffffffffffffffffffffffff1673ffffffffffffffffffffffffffffffffffffffff168152602001908152602001600020805480600101828162000ac4919062000c8d565b91600052602060002090016000849091909150555080600460008481526020019081526020016000208190555062000b176001600054620008be6401000000000262002abf179091906401000000009004565b600081905550505050565b6000600360008373ffffffffffffffffffffffffffffffffffffffff1673ffffffffffffffffffffffffffffffffffffffff168152602001908152602001600020805490509050919050565b60c060405190810160405280600073ffffffffffffffffffffffffffffffffffffffff16815260200162000ba162000da4565b815260200162000bb062000da4565b81526020016000151581526020016000151581526020016000151581525090565b81548183558181151162000c015760040281600402836000526020600020918201910162000c00919062000db8565b5b505050565b828054600181600116156101000203166002900490600052602060002090601f016020900481019282601f1062000c4957805160ff191683800117855562000c7a565b8280016001018555821562000c7a579182015b8281111562000c7957825182559160200191906001019062000c5c565b5b50905062000c89919062000e61565b5090565b81548183558181151162000cb75781836000526020600020918201910162000cb6919062000e61565b5b505050565b60a0604051908101604052806000815260200160008152602001600081526020016000815260200162000cee62000da4565b81525090565b81548183558181151162000d245760050281600502836000526020600020918201910162000d23919062000e89565b5b505050565b60a0604051908101604052806000815260200160008152602001600073ffffffffffffffffffffffffffffffffffffffff16815260200160008152602001600081525090565b81548183558181151162000d9f5760050281600502836000526020600020918201910162000d9e919062000edd565b5b505050565b602060405190810160405280600081525090565b62000e5e91905b8082111562000e5a57600080820160006101000a81549073ffffffffffffffffffffffffffffffffffffffff021916905560018201600062000e02919062000f46565b60028201600062000e14919062000f46565b6003820160006101000a81549060ff02191690556003820160016101000a81549060ff02191690556003820160026101000a81549060ff02191690555060040162000dbf565b5090565b90565b62000e8691905b8082111562000e8257600081600090555060010162000e68565b5090565b90565b62000eda91905b8082111562000ed65760008082016000905560018201600090556002820160009055600382016000905560048201600062000ecc919062000f46565b5060050162000e90565b5090565b90565b62000f4391905b8082111562000f3f5760008082016000905560018201600090556002820160006101000a81549073ffffffffffffffffffffffffffffffffffffffff0219169055600382016000905560048201600090555060050162000ee4565b5090565b90565b50805460018160011615610100020316600290046000825580601f1062000f6e575062000f8f565b601f01602090049060005260206000209081019062000f8e919062000e61565b5b50565b613a8c8062000fa26000396000f3006060604052600436106101e3576000357c0100000000000000000000000000000000000000000000000000000000900463ffffffff16806302932f56146101e857806306fdde0314610211578063095ea7b31461029f57806317307134146102e157806318160ddd1461030a57806319ad9577146103335780632a6dd48f146103565780632d85ea12146103b95780633da70bd51461040657806346bb283314610453578063493f1726146104a85780635598f8cc146104cb5780635a3f2672146106275780635cceb24b146106b55780636352211e146106e25780636c8c679b146107455780636f12923a146107d157806370a08231146108525780637204ca151461089f57806381cdb4c3146108c85780638da5cb5b146109bb57806390722b7514610a105780639141754214610a4757806395d89b4114610a9d578063a5f8777514610b2b578063a9059cbb14610c09578063a9cd4a1f14610c4b578063ae18e08314610c6e578063b2cdc6ff14610c91578063b2e6ceeb14610cb4578063bd6c67e914610cd7578063c5c4744c14610d0e578063ced3c6ad14610d37578063d6e0a37f14610d9a578063e4b50cb814610de1578063eb044b9714610e60578063f2fde38b14610e97578063fce3f6ac14610ed0578063fea62cae14610f79575b600080fd5b34156101f357600080fd5b6101fb610fcf565b6040518082815260200191505060405180910390f35b341561021c57600080fd5b610224610fef565b6040518080602001828103825283818151815260200191508051906020019080838360005b83811015610264578082015181840152602081019050610249565b50505050905090810190601f1680156102915780820380516001836020036101000a031916815260200191505b509250505060405180910390f35b34156102aa57600080fd5b6102df600480803573ffffffffffffffffffffffffffffffffffffffff16906020019091908035906020019091905050611032565b005b34156102ec57600080fd5b6102f46111c5565b6040518082815260200191505060405180910390f35b341561031557600080fd5b61031d6111cb565b6040518082815260200191505060405180910390f35b341561033e57600080fd5b61035460048080359060200190919050506111d4565b005b341561036157600080fd5b61037760048080359060200190919050506112c3565b604051808273ffffffffffffffffffffffffffffffffffffffff1673ffffffffffffffffffffffffffffffffffffffff16815260200191505060405180910390f35b34156103c457600080fd5b6103f0600480803573ffffffffffffffffffffffffffffffffffffffff16906020019091905050611300565b6040518082815260200191505060405180910390f35b341561041157600080fd5b61043d600480803573ffffffffffffffffffffffffffffffffffffffff16906020019091905050611349565b6040518082815260200191505060405180910390f35b341561045e57600080fd5b610466611361565b604051808273ffffffffffffffffffffffffffffffffffffffff1673ffffffffffffffffffffffffffffffffffffffff16815260200191505060405180910390f35b34156104b357600080fd5b6104c96004808035906020019091905050611387565b005b34156104d657600080fd5b6104ec600480803590602001909190505061150a565b604051808773ffffffffffffffffffffffffffffffffffffffff1673ffffffffffffffffffffffffffffffffffffffff1681526020018060200180602001861515151581526020018515151515815260200184151515158152602001838103835288818151815260200191508051906020019080838360005b83811015610580578082015181840152602081019050610565565b50505050905090810190601f1680156105ad5780820380516001836020036101000a031916815260200191505b50838103825287818151815260200191508051906020019080838360005b838110156105e65780820151818401526020810190506105cb565b50505050905090810190601f1680156106135780820380516001836020036101000a031916815260200191505b509850505050505050505060405180910390f35b341561063257600080fd5b61065e600480803573ffffffffffffffffffffffffffffffffffffffff169060200190919050506116ec565b6040518080602001828103825283818151815260200191508051906020019060200280838360005b838110156106a1578082015181840152602081019050610686565b505050509050019250505060405180910390f35b34156106c057600080fd5b6106e0600480803567ffffffffffffffff16906020019091905050611789565b005b34156106ed57600080fd5b61070360048080359060200190919050506117f9565b604051808273ffffffffffffffffffffffffffffffffffffffff1673ffffffffffffffffffffffffffffffffffffffff16815260200191505060405180910390f35b341561075057600080fd5b6107bb600480803590602001909190803590602001909190803590602001908201803590602001908080601f01602080910402602001604051908101604052809392919081815260200183838082843782019150505050505091908035906020019091905050611877565b6040518082815260200191505060405180910390f35b34156107dc57600080fd5b610850600480803590602001909190803590602001909190803590602001909190803590602001908201803590602001908080601f01602080910402602001604051908101604052809392919081815260200183838082843782019150505050505091908035906020019091905050611998565b005b341561085d57600080fd5b610889600480803573ffffffffffffffffffffffffffffffffffffffff16906020019091905050611ab6565b6040518082815260200191505060405180910390f35b34156108aa57600080fd5b6108b2611b02565b6040518082815260200191505060405180910390f35b34156108d357600080fd5b6108fc600480803590602001909190803567ffffffffffffffff16906020019091905050611b08565b604051808681526020018567ffffffffffffffff1667ffffffffffffffff1681526020018467ffffffffffffffff1667ffffffffffffffff16815260200180602001838152602001828103825284818151815260200191508051906020019080838360005b8381101561097c578082015181840152602081019050610961565b50505050905090810190601f1680156109a95780820380516001836020036101000a031916815260200191505b50965050505050505060405180910390f35b34156109c657600080fd5b6109ce611c18565b604051808273ffffffffffffffffffffffffffffffffffffffff1673ffffffffffffffffffffffffffffffffffffffff16815260200191505060405180910390f35b3415610a1b57600080fd5b610a316004808035906020019091905050611c3e565b6040518082815260200191505060405180910390f35b3415610a5257600080fd5b610a87600480803573ffffffffffffffffffffffffffffffffffffffff16906020019091908035906020019091905050611c56565b6040518082815260200191505060405180910390f35b3415610aa857600080fd5b610ab0611c87565b6040518080602001828103825283818151815260200191508051906020019080838360005b83811015610af0578082015181840152602081019050610ad5565b50505050905090810190601f168015610b1d5780820380516001836020036101000a031916815260200191505b509250505060405180910390f35b3415610b3657600080fd5b610b556004808035906020019091908035906020019091905050611cca565b6040518086815260200185815260200184815260200183815260200180602001828103825283818154600181600116156101000203166002900481526020019150805460018160011615610100020316600290048015610bf65780601f10610bcb57610100808354040283529160200191610bf6565b820191906000526020600020905b815481529060010190602001808311610bd957829003601f168201915b5050965050505050505060405180910390f35b3415610c1457600080fd5b610c49600480803573ffffffffffffffffffffffffffffffffffffffff16906020019091908035906020019091905050611d1b565b005b3415610c5657600080fd5b610c6c6004808035906020019091905050611d6e565b005b3415610c7957600080fd5b610c8f6004808035906020019091905050611de5565b005b3415610c9c57600080fd5b610cb26004808035906020019091905050611f2f565b005b3415610cbf57600080fd5b610cd560048080359060200190919050506121c6565b005b3415610ce257600080fd5b610cf860048080359060200190919050506121f1565b6040518082815260200191505060405180910390f35b3415610d1957600080fd5b610d21612209565b6040518082815260200191505060405180910390f35b3415610d4257600080fd5b610d58600480803590602001909190505061220f565b604051808273ffffffffffffffffffffffffffffffffffffffff1673ffffffffffffffffffffffffffffffffffffffff16815260200191505060405180910390f35b610dcb60048080356fffffffffffffffffffffffffffffffff16906020019091908035906020019091905050612242565b6040518082815260200191505060405180910390f35b3415610dec57600080fd5b610e0260048080359060200190919050506123fe565b604051808681526020018581526020018481526020018373ffffffffffffffffffffffffffffffffffffffff1673ffffffffffffffffffffffffffffffffffffffff1681526020018281526020019550505050505060405180910390f35b3415610e6b57600080fd5b610e816004808035906020019091905050612473565b6040518082815260200191505060405180910390f35b3415610ea257600080fd5b610ece600480803573ffffffffffffffffffffffffffffffffffffffff16906020019091905050612490565b005b610f63600480803590602001908201803590602001908080601f0160208091040260200160405190810160405280939291908181526020018383808284378201915050505050509190803590602001908201803590602001908080601f016020809104026020016040519081016040528093929190818152602001838380828437820191505050505050919050506125e8565b6040518082815260200191505060405180910390f35b3415610f8457600080fd5b610fb9600480803573ffffffffffffffffffffffffffffffffffffffff16906020019091908035906020019091905050612651565b6040518082815260200191505060405180910390f35b6000610fea60016007805490506126b390919063ffffffff16565b905090565b610ff7613597565b6040805190810160405280600c81526020017f4920476176652041737365740000000000000000000000000000000000000000815250905090565b6000813373ffffffffffffffffffffffffffffffffffffffff16611055826117f9565b73ffffffffffffffffffffffffffffffffffffffff1614151561107757600080fd5b611080836117f9565b91508173ffffffffffffffffffffffffffffffffffffffff168473ffffffffffffffffffffffffffffffffffffffff16141515156110bd57600080fd5b60006110c8846112c3565b73ffffffffffffffffffffffffffffffffffffffff16141580611102575060008473ffffffffffffffffffffffffffffffffffffffff1614155b156111bf57836002600085815260200190815260200160002060006101000a81548173ffffffffffffffffffffffffffffffffffffffff021916908373ffffffffffffffffffffffffffffffffffffffff1602179055508373ffffffffffffffffffffffffffffffffffffffff168273ffffffffffffffffffffffffffffffffffffffff167f8c5be1e5ebec7d5bd14f71427d1e84f3dd0314c0f7b2291e5b200ac8c7c3b925856040518082815260200191505060405180910390a35b50505050565b60105481565b60008054905090565b6000811115156111e357600080fd5b3373ffffffffffffffffffffffffffffffffffffffff16600a600083815260200190815260200160002060009054906101000a900473ffffffffffffffffffffffffffffffffffffffff1673ffffffffffffffffffffffffffffffffffffffff1614151561125057600080fd5b600160078281548110151561126157fe5b906000526020600020906004020160030160026101000a81548160ff0219169083151502179055507f3f736ff1bf5c4bf87934f39f1b28f7991a787b08a0fcfffadb631c897fee3597816040518082815260200191505060405180910390a150565b60006002600083815260200190815260200160002060009054906101000a900473ffffffffffffffffffffffffffffffffffffffff169050919050565b6000600c60008373ffffffffffffffffffffffffffffffffffffffff1673ffffffffffffffffffffffffffffffffffffffff168152602001908152602001600020549050919050565b600c6020528060005260406000206000915090505481565b600660009054906101000a900473ffffffffffffffffffffffffffffffffffffffff1681565b600560009054906101000a900473ffffffffffffffffffffffffffffffffffffffff1673ffffffffffffffffffffffffffffffffffffffff163373ffffffffffffffffffffffffffffffffffffffff161415156113e357600080fd5b6000811115156113f257600080fd5b6000151560078281548110151561140557fe5b906000526020600020906004020160030160009054906101000a900460ff16151514151561143257600080fd5b6000151560078281548110151561144557fe5b906000526020600020906004020160030160019054906101000a900460ff16151514151561147257600080fd5b6000600e60008381526020019081526020016000208054905011151561149757600080fd5b60016007828154811015156114a857fe5b906000526020600020906004020160030160006101000a81548160ff0219169083151502179055507f654d8eebe83f5c9a3d922533e6a30bcb25c11d78ce18b205a0bbc0a4391e1d00816040518082815260200191505060405180910390a150565b6000611514613597565b61151c613597565b60008060008060078881548110151561153157fe5b906000526020600020906004020190508060000160009054906101000a900473ffffffffffffffffffffffffffffffffffffffff169650806001018054600181600116156101000203166002900480601f0160208091040260200160405190810160405280929190818152602001828054600181600116156101000203166002900480156116005780601f106115d557610100808354040283529160200191611600565b820191906000526020600020905b8154815290600101906020018083116115e357829003601f168201915b50505050509550806002018054600181600116156101000203166002900480601f01602080910402602001604051908101604052809291908181526020018280546001816001161561010002031660029004801561169f5780601f106116745761010080835404028352916020019161169f565b820191906000526020600020905b81548152906001019060200180831161168257829003601f168201915b505050505094508060030160009054906101000a900460ff1693508060030160019054906101000a900460ff1692508060030160029054906101000a900460ff1691505091939550919395565b6116f46135ab565b600360008373ffffffffffffffffffffffffffffffffffffffff1673ffffffffffffffffffffffffffffffffffffffff16815260200190815260200160002080548060200260200160405190810160405280929190818152602001828054801561177d57602002820191906000526020600020905b815481526020019060010190808311611769575b50505050509050919050565b600560009054906101000a900473ffffffffffffffffffffffffffffffffffffffff1673ffffffffffffffffffffffffffffffffffffffff163373ffffffffffffffffffffffffffffffffffffffff161415156117e557600080fd5b8067ffffffffffffffff1660108190555050565b6000806001600084815260200190815260200160002060009054906101000a900473ffffffffffffffffffffffffffffffffffffffff169050600073ffffffffffffffffffffffffffffffffffffffff168173ffffffffffffffffffffffffffffffffffffffff161415151561186e57600080fd5b80915050919050565b6000803373ffffffffffffffffffffffffffffffffffffffff16600a600088815260200190815260200160002060009054906101000a900473ffffffffffffffffffffffffffffffffffffffff1673ffffffffffffffffffffffffffffffffffffffff161415156118e757600080fd5b6000861115156118f657600080fd5b60078681548110151561190557fe5b90600052602060002090600402019050600015158160030160009054906101000a900460ff16151514151561193957600080fd5b600015158160030160019054906101000a900460ff16151514151561195d57600080fd5b600015158160030160029054906101000a900460ff16151514151561198157600080fd5b61198d868686866126cc565b915050949350505050565b60003373ffffffffffffffffffffffffffffffffffffffff16600a600088815260200190815260200160002060009054906101000a900473ffffffffffffffffffffffffffffffffffffffff1673ffffffffffffffffffffffffffffffffffffffff16141515611a0757600080fd5b600086111515611a1657600080fd5b600786815481101515611a2557fe5b90600052602060002090600402019050600015158160030160009054906101000a900460ff161515141515611a5957600080fd5b600015158160030160019054906101000a900460ff161515141515611a7d57600080fd5b600015158160030160029054906101000a900460ff161515141515611aa157600080fd5b611aae868686868661286e565b505050505050565b6000600360008373ffffffffffffffffffffffffffffffffffffffff1673ffffffffffffffffffffffffffffffffffffffff168152602001908152602001600020805490509050919050565b60095481565b6000806000611b15613597565b600080600e60008981526020019081526020016000208767ffffffffffffffff16815481101515611b4257fe5b90600052602060002090600502019050806000015495508060020154945080600301549350806004018054600181600116156101000203166002900480601f016020809104026020016040519081016040528092919081815260200182805460018160011615610100020316600290048015611bff5780601f10611bd457610100808354040283529160200191611bff565b820191906000526020600020905b815481529060010190602001808311611be257829003601f168201915b5050505050925080600101549150509295509295909350565b600560009054906101000a900473ffffffffffffffffffffffffffffffffffffffff1681565b600f6020528060005260406000206000915090505481565b600b60205281600052604060002081815481101515611c7157fe5b9060005260206000209001600091509150505481565b611c8f613597565b6040805190810160405280600381526020017f493c330000000000000000000000000000000000000000000000000000000000815250905090565b600e60205281600052604060002081815481101515611ce557fe5b90600052602060002090600502016000915091505080600001549080600101549080600201549080600301549080600401905085565b803373ffffffffffffffffffffffffffffffffffffffff16611d3c826117f9565b73ffffffffffffffffffffffffffffffffffffffff16141515611d5e57600080fd5b611d69338484612976565b505050565b600560009054906101000a900473ffffffffffffffffffffffffffffffffffffffff1673ffffffffffffffffffffffffffffffffffffffff163373ffffffffffffffffffffffffffffffffffffffff16141515611dca57600080fd5b6103e88111151515611ddb57600080fd5b8060098190555050565b60008082111515611df557600080fd5b3373ffffffffffffffffffffffffffffffffffffffff16600a600084815260200190815260200160002060009054906101000a900473ffffffffffffffffffffffffffffffffffffffff1673ffffffffffffffffffffffffffffffffffffffff16141515611e6257600080fd5b6000600d600084815260200190815260200160002054111515611e8457600080fd5b600d60008381526020019081526020016000205490506000600d6000848152602001908152602001600020819055503373ffffffffffffffffffffffffffffffffffffffff166108fc829081150290604051600060405180830381858888f193505050501515611ef357600080fd5b817fccf4374900bd722270142f35dcf4fc2e2b5a3c60ab03daccfa8d4dce0dfe738a826040518082815260200191505060405180910390a25050565b600080600560009054906101000a900473ffffffffffffffffffffffffffffffffffffffff1673ffffffffffffffffffffffffffffffffffffffff163373ffffffffffffffffffffffffffffffffffffffff16141515611f8e57600080fd5b600083111515611f9d57600080fd5b600783815481101515611fac57fe5b9060005260206000209060040201600080820160006101000a81549073ffffffffffffffffffffffffffffffffffffffff0219169055600182016000611ff291906135bf565b60028201600061200291906135bf565b6003820160006101000a81549060ff02191690556003820160016101000a81549060ff02191690556003820160026101000a81549060ff02191690555050600160078481548110151561205157fe5b906000526020600020906004020160030160016101000a81548160ff021916908315150217905550600560009054906101000a900473ffffffffffffffffffffffffffffffffffffffff166007848154811015156120ab57fe5b906000526020600020906004020160000160006101000a81548173ffffffffffffffffffffffffffffffffffffffff021916908373ffffffffffffffffffffffffffffffffffffffff160217905550600e60008481526020019081526020016000209150600090505b818054905081101561218a57818181548110151561212e57fe5b906000526020600020906005020160008082016000905560018201600090556002820160009055600382016000905560048201600061216d91906135bf565b5050612183600182612abf90919063ffffffff16565b9050612114565b7fa107a556b4445af6c76c3d1fb0861a3a6eba0a2d7cde2778425369de1d5a171b836040518082815260200191505060405180910390a1505050565b6121d03382612add565b15156121db57600080fd5b6121ee6121e7826117f9565b3383612976565b50565b600d6020528060005260406000206000915090505481565b60115481565b600a6020528060005260406000206000915054906101000a900473ffffffffffffffffffffffffffffffffffffffff1681565b6000806000806007866fffffffffffffffffffffffffffffffff1681548110151561226957fe5b90600052602060002090600402019250600115158360030160009054906101000a900460ff16151514151561229d57600080fd5b600015158360030160019054906101000a900460ff1615151415156122c157600080fd5b600e6000876fffffffffffffffffffffffffffffffff168152602001908152602001600020858154811015156122f357fe5b906000526020600020906005020191506000826003015411151561231657600080fd5b81600101543414151561232857600080fd5b6123566001612348846003015485600201546126b390919063ffffffff16565b612abf90919063ffffffff16565b905061239034600d6000896fffffffffffffffffffffffffffffffff16815260200190815260200160002054612abf90919063ffffffff16565b600d6000886fffffffffffffffffffffffffffffffff168152602001908152602001600020819055506123ce34601154612abf90919063ffffffff16565b6011819055506123f3866fffffffffffffffffffffffffffffffff1686833334612b1e565b935050505092915050565b60008060008060008060088781548110151561241657fe5b906000526020600020906005020190508060000154955080600101549450806003015493508060020160009054906101000a900473ffffffffffffffffffffffffffffffffffffffff169250806004015491505091939590929450565b6000600d6000838152602001908152602001600020549050919050565b600560009054906101000a900473ffffffffffffffffffffffffffffffffffffffff1673ffffffffffffffffffffffffffffffffffffffff163373ffffffffffffffffffffffffffffffffffffffff161415156124ec57600080fd5b600073ffffffffffffffffffffffffffffffffffffffff168173ffffffffffffffffffffffffffffffffffffffff161415151561252857600080fd5b8073ffffffffffffffffffffffffffffffffffffffff16600560009054906101000a900473ffffffffffffffffffffffffffffffffffffffff1673ffffffffffffffffffffffffffffffffffffffff167f8be0079c531659141344cd1fd0a4f28419497f9722a3daafe3b4186f6b6457e060405160405180910390a380600560006101000a81548173ffffffffffffffffffffffffffffffffffffffff021916908373ffffffffffffffffffffffffffffffffffffffff16021790555050565b600080601054341415156125fb57600080fd5b612606338585612d03565b9050612630601054600d600084815260200190815260200160002054612abf90919063ffffffff16565b600d6000838152602001908152602001600020819055508091505092915050565b6000600b60008473ffffffffffffffffffffffffffffffffffffffff1673ffffffffffffffffffffffffffffffffffffffff1681526020019081526020016000208281548110151561269f57fe5b906000526020600020900154905092915050565b60008282111515156126c157fe5b818303905092915050565b60006126d6613607565b600060a060405190810160405280888152602001858152602001878152602001878152602001868152509150600e60008881526020019081526020016000208054806001018281612727919061363d565b9160005260206000209060050201600084909190915060008201518160000155602082015181600101556040820151816002015560608201518160030155608082015181600401908051906020019061278192919061366f565b50505090506127ad6001600f60008a815260200190815260200160002054612abf90919063ffffffff16565b600f600089815260200190815260200160002081905550867fbcc78462243df19ab0f6e9bff38bc47cc381cc4600d2e33e08232d5f78e0e893866040518080602001828103825283818151815260200191508051906020019080838360005b8381101561282757808201518184015260208101905061280c565b50505050905090810190601f1680156128545780820380516001836020036101000a031916815260200191505b509250505060405180910390a28092505050949350505050565b600f6000868152602001908152602001600020548410151561288f57600080fd5b82600e6000878152602001908152602001600020858154811015156128b057fe5b90600052602060002090600502016002018190555081600e6000878152602001908152602001600020858154811015156128e657fe5b9060005260206000209060050201600401908051906020019061290a9291906136ef565b5080600e60008781526020019081526020016000208581548110151561292c57fe5b90600052602060002090600502016001018190555083857f786c7e740ad4b9cbb9643a5316ead4cfa380c3536634f463e35dd5e43bdc79d660405160405180910390a35050505050565b600073ffffffffffffffffffffffffffffffffffffffff168273ffffffffffffffffffffffffffffffffffffffff16141515156129b257600080fd5b6129bb816117f9565b73ffffffffffffffffffffffffffffffffffffffff168273ffffffffffffffffffffffffffffffffffffffff16141515156129f557600080fd5b8273ffffffffffffffffffffffffffffffffffffffff16612a15826117f9565b73ffffffffffffffffffffffffffffffffffffffff16141515612a3757600080fd5b612a418382613021565b612a4b838261310a565b612a558282613392565b8173ffffffffffffffffffffffffffffffffffffffff168373ffffffffffffffffffffffffffffffffffffffff167fddf252ad1be2c89b69c2b068fc378daa952ba7f163c4a11628f55a4df523b3ef836040518082815260200191505060405180910390a3505050565b6000808284019050838110151515612ad357fe5b8091505092915050565b60008273ffffffffffffffffffffffffffffffffffffffff16612aff836112c3565b73ffffffffffffffffffffffffffffffffffffffff1614905092915050565b6000612b2861376f565b60008060a0604051908101604052808a81526020018681526020018773ffffffffffffffffffffffffffffffffffffffff168152602001888152602001898152509250600e60008a815260200190815260200160002088815481101515612b8b57fe5b9060005260206000209060050201600301549150612bb36001836126b390919063ffffffff16565b600e60008b815260200190815260200160002089815481101515612bd357fe5b90600052602060002090600502016003018190555060088054806001018281612bfc91906137b5565b91600052602060002090600502016000859091909150600082015181600001556020820151816001015560408201518160020160006101000a81548173ffffffffffffffffffffffffffffffffffffffff021916908373ffffffffffffffffffffffffffffffffffffffff160217905550606082015181600301556080820151816004015550509050612c8f86826134fd565b87897f3ffd4886872bbfb79239c94b42e59f56b5e810f72259627f1af658ccc35bc8fb88604051808273ffffffffffffffffffffffffffffffffffffffff1673ffffffffffffffffffffffffffffffffffffffff16815260200191505060405180910390a380935050505095945050505050565b6000612d0d6137e7565b600060c0604051908101604052808773ffffffffffffffffffffffffffffffffffffffff16815260200186815260200185815260200160001515815260200160001515815260200160001515815250915060078054806001018281612d729190613846565b9160005260206000209060040201600084909190915060008201518160000160006101000a81548173ffffffffffffffffffffffffffffffffffffffff021916908373ffffffffffffffffffffffffffffffffffffffff1602179055506020820151816001019080519060200190612deb92919061366f565b506040820151816002019080519060200190612e0892919061366f565b5060608201518160030160006101000a81548160ff02191690831515021790555060808201518160030160016101000a81548160ff02191690831515021790555060a08201518160030160026101000a81548160ff02191690831515021790555050509050612e816001826126b390919063ffffffff16565b905085600a600083815260200190815260200160002060006101000a81548173ffffffffffffffffffffffffffffffffffffffff021916908373ffffffffffffffffffffffffffffffffffffffff160217905550600b60008773ffffffffffffffffffffffffffffffffffffffff1673ffffffffffffffffffffffffffffffffffffffff1681526020019081526020016000208054806001018281612f269190613878565b916000526020600020900160008390919091505550612f8e6001600c60008973ffffffffffffffffffffffffffffffffffffffff1673ffffffffffffffffffffffffffffffffffffffff16815260200190815260200160002054612abf90919063ffffffff16565b600c60008873ffffffffffffffffffffffffffffffffffffffff1673ffffffffffffffffffffffffffffffffffffffff16815260200190815260200160002081905550808673ffffffffffffffffffffffffffffffffffffffff167f8947cb78db2ffa53132a4e627ea0e20920cf6edd68b7b07989687e1a28e0bac760405160405180910390a380925050509392505050565b8173ffffffffffffffffffffffffffffffffffffffff16613041826117f9565b73ffffffffffffffffffffffffffffffffffffffff1614151561306357600080fd5b60006002600083815260200190815260200160002060006101000a81548173ffffffffffffffffffffffffffffffffffffffff021916908373ffffffffffffffffffffffffffffffffffffffff16021790555060008273ffffffffffffffffffffffffffffffffffffffff167f8c5be1e5ebec7d5bd14f71427d1e84f3dd0314c0f7b2291e5b200ac8c7c3b925836040518082815260200191505060405180910390a35050565b60008060008473ffffffffffffffffffffffffffffffffffffffff1661312f856117f9565b73ffffffffffffffffffffffffffffffffffffffff1614151561315157600080fd5b60046000858152602001908152602001600020549250613183600161317587611ab6565b6126b390919063ffffffff16565b9150600360008673ffffffffffffffffffffffffffffffffffffffff1673ffffffffffffffffffffffffffffffffffffffff168152602001908152602001600020828154811015156131d157fe5b906000526020600020900154905060006001600086815260200190815260200160002060006101000a81548173ffffffffffffffffffffffffffffffffffffffff021916908373ffffffffffffffffffffffffffffffffffffffff16021790555080600360008773ffffffffffffffffffffffffffffffffffffffff1673ffffffffffffffffffffffffffffffffffffffff1681526020019081526020016000208481548110151561327f57fe5b9060005260206000209001819055506000600360008773ffffffffffffffffffffffffffffffffffffffff1673ffffffffffffffffffffffffffffffffffffffff168152602001908152602001600020838154811015156132dc57fe5b906000526020600020900181905550600360008673ffffffffffffffffffffffffffffffffffffffff1673ffffffffffffffffffffffffffffffffffffffff16815260200190815260200160002080548091906001900361333d91906138a4565b506000600460008681526020019081526020016000208190555082600460008381526020019081526020016000208190555061338560016000546126b390919063ffffffff16565b6000819055505050505050565b60008073ffffffffffffffffffffffffffffffffffffffff166001600084815260200190815260200160002060009054906101000a900473ffffffffffffffffffffffffffffffffffffffff1673ffffffffffffffffffffffffffffffffffffffff1614151561340157600080fd5b826001600084815260200190815260200160002060006101000a81548173ffffffffffffffffffffffffffffffffffffffff021916908373ffffffffffffffffffffffffffffffffffffffff16021790555061345c83611ab6565b9050600360008473ffffffffffffffffffffffffffffffffffffffff1673ffffffffffffffffffffffffffffffffffffffff16815260200190815260200160002080548060010182816134af9190613878565b9160005260206000209001600084909190915055508060046000848152602001908152602001600020819055506134f26001600054612abf90919063ffffffff16565b600081905550505050565b600073ffffffffffffffffffffffffffffffffffffffff168273ffffffffffffffffffffffffffffffffffffffff161415151561353957600080fd5b6135438282613392565b8173ffffffffffffffffffffffffffffffffffffffff1660007fddf252ad1be2c89b69c2b068fc378daa952ba7f163c4a11628f55a4df523b3ef836040518082815260200191505060405180910390a35050565b602060405190810160405280600081525090565b602060405190810160405280600081525090565b50805460018160011615610100020316600290046000825580601f106135e55750613604565b601f01602090049060005260206000209081019061360391906138d0565b5b50565b60a060405190810160405280600081526020016000815260200160008152602001600081526020016136376138f5565b81525090565b81548183558181151161366a576005028160050283600052602060002091820191016136699190613909565b5b505050565b828054600181600116156101000203166002900490600052602060002090601f016020900481019282601f106136b057805160ff19168380011785556136de565b828001600101855582156136de579182015b828111156136dd5782518255916020019190600101906136c2565b5b5090506136eb91906138d0565b5090565b828054600181600116156101000203166002900490600052602060002090601f016020900481019282601f1061373057805160ff191683800117855561375e565b8280016001018555821561375e579182015b8281111561375d578251825591602001919060010190613742565b5b50905061376b91906138d0565b5090565b60a0604051908101604052806000815260200160008152602001600073ffffffffffffffffffffffffffffffffffffffff16815260200160008152602001600081525090565b8154818355818115116137e2576005028160050283600052602060002091820191016137e19190613958565b5b505050565b60c060405190810160405280600073ffffffffffffffffffffffffffffffffffffffff1681526020016138186138f5565b81526020016138256138f5565b81526020016000151581526020016000151581526020016000151581525090565b8154818355818115116138735760040281600402836000526020600020918201910161387291906139be565b5b505050565b81548183558181151161389f5781836000526020600020918201910161389e91906138d0565b5b505050565b8154818355818115116138cb578183600052602060002091820191016138ca91906138d0565b5b505050565b6138f291905b808211156138ee5760008160009055506001016138d6565b5090565b90565b602060405190810160405280600081525090565b61395591905b808211156139515760008082016000905560018201600090556002820160009055600382016000905560048201600061394891906135bf565b5060050161390f565b5090565b90565b6139bb91905b808211156139b75760008082016000905560018201600090556002820160006101000a81549073ffffffffffffffffffffffffffffffffffffffff0219169055600382016000905560048201600090555060050161395e565b5090565b90565b613a5d91905b80821115613a5957600080820160006101000a81549073ffffffffffffffffffffffffffffffffffffffff0219169055600182016000613a0491906135bf565b600282016000613a1491906135bf565b6003820160006101000a81549060ff02191690556003820160016101000a81549060ff02191690556003820160026101000a81549060ff0219169055506004016139c4565b5090565b905600a165627a7a7230582074fe56c70f0b35969a49b893096da5fdc52771a8557a554ec3aa04f2cb76f2e10029",
  "source": "pragma solidity ^0.4.19;\n\nimport \"./dapp/Core.sol\";\n\ncontract DAPP is Core {\n    function DAPP() public {\n    founderAddress = msg.sender;\n\n    _createCampaign(msg.sender, \"Genesis Campaign\", \"\");\n    _createCertificate(0, 1, \"Genesis Certificate\", 0);\n    _createToken(0, 0, 0, msg.sender, 0);\n  }\n}",
  "sourcePath": "/home/hayek/proj/fundraiser_audit/contracts/DAPP.sol",
  "compiler": {
    "name": "solc",
    "version": "0.4.19+commit.c4cbbb05.Emscripten.clang"
  },
  "schemaVersion": "1.0.1",
  "updatedAt": "2018-03-25T18:13:39.087Z"
}