{
  "contractName": "Fundraiser",
  "abi": [
    {
      "constant": true,
      "inputs": [],
      "name": "name",
      "outputs": [
        {
          "name": "_name",
          "type": "string"
        }
      ],
      "payable": false,
      "stateMutability": "pure",
      "type": "function"
    },
    {
      "constant": false,
      "inputs": [
        {
          "name": "_to",
          "type": "address"
        },
        {
          "name": "_tokenId",
          "type": "uint256"
        }
      ],
      "name": "approve",
      "outputs": [],
      "payable": false,
      "stateMutability": "nonpayable",
      "type": "function"
    },
    {
      "constant": true,
      "inputs": [],
      "name": "totalSupply",
      "outputs": [
        {
          "name": "",
          "type": "uint256"
        }
      ],
      "payable": false,
      "stateMutability": "view",
      "type": "function"
    },
    {
      "constant": true,
      "inputs": [
        {
          "name": "_tokenId",
          "type": "uint256"
        }
      ],
      "name": "approvedFor",
      "outputs": [
        {
          "name": "",
          "type": "address"
        }
      ],
      "payable": false,
      "stateMutability": "view",
      "type": "function"
    },
    {
      "constant": true,
      "inputs": [
        {
          "name": "",
          "type": "address"
        }
      ],
      "name": "campaignOwnerTotalCampaigns",
      "outputs": [
        {
          "name": "",
          "type": "uint256"
        }
      ],
      "payable": false,
      "stateMutability": "view",
      "type": "function"
    },
    {
      "constant": true,
      "inputs": [],
      "name": "founderAddress",
      "outputs": [
        {
          "name": "",
          "type": "address"
        }
      ],
      "payable": false,
      "stateMutability": "view",
      "type": "function"
    },
    {
      "constant": true,
      "inputs": [
        {
          "name": "_owner",
          "type": "address"
        }
      ],
      "name": "tokensOf",
      "outputs": [
        {
          "name": "",
          "type": "uint256[]"
        }
      ],
      "payable": false,
      "stateMutability": "view",
      "type": "function"
    },
    {
      "constant": true,
      "inputs": [
        {
          "name": "_tokenId",
          "type": "uint256"
        }
      ],
      "name": "ownerOf",
      "outputs": [
        {
          "name": "",
          "type": "address"
        }
      ],
      "payable": false,
      "stateMutability": "view",
      "type": "function"
    },
    {
      "constant": true,
      "inputs": [
        {
          "name": "_owner",
          "type": "address"
        }
      ],
      "name": "balanceOf",
      "outputs": [
        {
          "name": "",
          "type": "uint256"
        }
      ],
      "payable": false,
      "stateMutability": "view",
      "type": "function"
    },
    {
      "constant": true,
      "inputs": [],
      "name": "maxCertificates",
      "outputs": [
        {
          "name": "",
          "type": "uint256"
        }
      ],
      "payable": false,
      "stateMutability": "view",
      "type": "function"
    },
    {
      "constant": true,
      "inputs": [],
      "name": "owner",
      "outputs": [
        {
          "name": "",
          "type": "address"
        }
      ],
      "payable": false,
      "stateMutability": "view",
      "type": "function"
    },
    {
      "constant": true,
      "inputs": [
        {
          "name": "",
          "type": "uint256"
        }
      ],
      "name": "campaignCertificateCount",
      "outputs": [
        {
          "name": "",
          "type": "uint256"
        }
      ],
      "payable": false,
      "stateMutability": "view",
      "type": "function"
    },
    {
      "constant": true,
      "inputs": [
        {
          "name": "",
          "type": "address"
        },
        {
          "name": "",
          "type": "uint256"
        }
      ],
      "name": "campaignOwnerToIndexes",
      "outputs": [
        {
          "name": "",
          "type": "uint256"
        }
      ],
      "payable": false,
      "stateMutability": "view",
      "type": "function"
    },
    {
      "constant": true,
      "inputs": [],
      "name": "symbol",
      "outputs": [
        {
          "name": "_symbol",
          "type": "string"
        }
      ],
      "payable": false,
      "stateMutability": "pure",
      "type": "function"
    },
    {
      "constant": true,
      "inputs": [
        {
          "name": "",
          "type": "uint256"
        },
        {
          "name": "",
          "type": "uint256"
        }
      ],
      "name": "campaignCertificates",
      "outputs": [
        {
          "name": "campaignId",
          "type": "uint256"
        },
        {
          "name": "price",
          "type": "uint256"
        },
        {
          "name": "supply",
          "type": "uint256"
        },
        {
          "name": "remaining",
          "type": "uint256"
        },
        {
          "name": "name",
          "type": "string"
        }
      ],
      "payable": false,
      "stateMutability": "view",
      "type": "function"
    },
    {
      "constant": false,
      "inputs": [
        {
          "name": "_to",
          "type": "address"
        },
        {
          "name": "_tokenId",
          "type": "uint256"
        }
      ],
      "name": "transfer",
      "outputs": [],
      "payable": false,
      "stateMutability": "nonpayable",
      "type": "function"
    },
    {
      "constant": false,
      "inputs": [
        {
          "name": "_tokenId",
          "type": "uint256"
        }
      ],
      "name": "takeOwnership",
      "outputs": [],
      "payable": false,
      "stateMutability": "nonpayable",
      "type": "function"
    },
    {
      "constant": true,
      "inputs": [
        {
          "name": "",
          "type": "uint256"
        }
      ],
      "name": "campaignBalance",
      "outputs": [
        {
          "name": "",
          "type": "uint256"
        }
      ],
      "payable": false,
      "stateMutability": "view",
      "type": "function"
    },
    {
      "constant": true,
      "inputs": [
        {
          "name": "",
          "type": "uint256"
        }
      ],
      "name": "campaignIndexToOwner",
      "outputs": [
        {
          "name": "",
          "type": "address"
        }
      ],
      "payable": false,
      "stateMutability": "view",
      "type": "function"
    },
    {
      "constant": false,
      "inputs": [
        {
          "name": "newOwner",
          "type": "address"
        }
      ],
      "name": "transferOwnership",
      "outputs": [],
      "payable": false,
      "stateMutability": "nonpayable",
      "type": "function"
    },
    {
      "anonymous": false,
      "inputs": [
        {
          "indexed": true,
          "name": "owner",
          "type": "address"
        },
        {
          "indexed": true,
          "name": "campaignId",
          "type": "uint256"
        }
      ],
      "name": "CreateCampaign",
      "type": "event"
    },
    {
      "anonymous": false,
      "inputs": [
        {
          "indexed": true,
          "name": "campaignId",
          "type": "uint256"
        },
        {
          "indexed": false,
          "name": "name",
          "type": "string"
        }
      ],
      "name": "CreateCertificate",
      "type": "event"
    },
    {
      "anonymous": false,
      "inputs": [
        {
          "indexed": true,
          "name": "campaignId",
          "type": "uint256"
        },
        {
          "indexed": true,
          "name": "certificateIdx",
          "type": "uint256"
        }
      ],
      "name": "UpdateCertificate",
      "type": "event"
    },
    {
      "anonymous": false,
      "inputs": [
        {
          "indexed": true,
          "name": "campaignId",
          "type": "uint256"
        },
        {
          "indexed": true,
          "name": "certificateIdx",
          "type": "uint256"
        },
        {
          "indexed": false,
          "name": "owner",
          "type": "address"
        }
      ],
      "name": "CreateToken",
      "type": "event"
    },
    {
      "anonymous": false,
      "inputs": [
        {
          "indexed": true,
          "name": "campaignId",
          "type": "uint256"
        },
        {
          "indexed": false,
          "name": "balance",
          "type": "uint256"
        }
      ],
      "name": "WithdrawBalance",
      "type": "event"
    },
    {
      "anonymous": false,
      "inputs": [
        {
          "indexed": true,
          "name": "previousOwner",
          "type": "address"
        },
        {
          "indexed": true,
          "name": "newOwner",
          "type": "address"
        }
      ],
      "name": "OwnershipTransferred",
      "type": "event"
    },
    {
      "anonymous": false,
      "inputs": [
        {
          "indexed": true,
          "name": "_from",
          "type": "address"
        },
        {
          "indexed": true,
          "name": "_to",
          "type": "address"
        },
        {
          "indexed": false,
          "name": "_tokenId",
          "type": "uint256"
        }
      ],
      "name": "Transfer",
      "type": "event"
    },
    {
      "anonymous": false,
      "inputs": [
        {
          "indexed": true,
          "name": "_owner",
          "type": "address"
        },
        {
          "indexed": true,
          "name": "_approved",
          "type": "address"
        },
        {
          "indexed": false,
          "name": "_tokenId",
          "type": "uint256"
        }
      ],
      "name": "Approval",
      "type": "event"
    },
    {
      "constant": false,
      "inputs": [
        {
          "name": "_campaignId",
          "type": "uint256"
        }
      ],
      "name": "withdrawCampaignBalance",
      "outputs": [],
      "payable": false,
      "stateMutability": "nonpayable",
      "type": "function"
    },
    {
      "constant": false,
      "inputs": [
        {
          "name": "_maxCertificates",
          "type": "uint256"
        }
      ],
      "name": "changeMaxCertificates",
      "outputs": [],
      "payable": false,
      "stateMutability": "nonpayable",
      "type": "function"
    },
    {
      "constant": true,
      "inputs": [
        {
          "name": "_id",
          "type": "uint256"
        }
      ],
      "name": "getCampaign",
      "outputs": [
        {
          "name": "owner",
          "type": "address"
        },
        {
          "name": "campaignName",
          "type": "string"
        },
        {
          "name": "taxId",
          "type": "string"
        },
        {
          "name": "active",
          "type": "bool"
        },
        {
          "name": "veto",
          "type": "bool"
        },
        {
          "name": "ready",
          "type": "bool"
        }
      ],
      "payable": false,
      "stateMutability": "view",
      "type": "function"
    },
    {
      "constant": true,
      "inputs": [
        {
          "name": "_campaignId",
          "type": "uint256"
        },
        {
          "name": "_certificateIdx",
          "type": "uint64"
        }
      ],
      "name": "getCertificate",
      "outputs": [
        {
          "name": "campaignId",
          "type": "uint256"
        },
        {
          "name": "supply",
          "type": "uint64"
        },
        {
          "name": "remaining",
          "type": "uint64"
        },
        {
          "name": "name",
          "type": "string"
        },
        {
          "name": "price",
          "type": "uint256"
        }
      ],
      "payable": false,
      "stateMutability": "view",
      "type": "function"
    },
    {
      "constant": true,
      "inputs": [
        {
          "name": "_id",
          "type": "uint256"
        }
      ],
      "name": "getToken",
      "outputs": [
        {
          "name": "campaignId",
          "type": "uint256"
        },
        {
          "name": "value",
          "type": "uint256"
        },
        {
          "name": "unitNumber",
          "type": "uint256"
        },
        {
          "name": "purchaser",
          "type": "address"
        },
        {
          "name": "certificateIdx",
          "type": "uint256"
        }
      ],
      "payable": false,
      "stateMutability": "view",
      "type": "function"
    },
    {
      "constant": true,
      "inputs": [
        {
          "name": "_owner",
          "type": "address"
        }
      ],
      "name": "getTotalCampaignsForOwner",
      "outputs": [
        {
          "name": "total",
          "type": "uint256"
        }
      ],
      "payable": false,
      "stateMutability": "view",
      "type": "function"
    },
    {
      "constant": true,
      "inputs": [
        {
          "name": "_owner",
          "type": "address"
        },
        {
          "name": "_index",
          "type": "uint256"
        }
      ],
      "name": "getCampaignIdByOwnerIndex",
      "outputs": [
        {
          "name": "id",
          "type": "uint256"
        }
      ],
      "payable": false,
      "stateMutability": "view",
      "type": "function"
    },
    {
      "constant": true,
      "inputs": [],
      "name": "totalCampaigns",
      "outputs": [
        {
          "name": "",
          "type": "uint256"
        }
      ],
      "payable": false,
      "stateMutability": "view",
      "type": "function"
    },
    {
      "constant": true,
      "inputs": [
        {
          "name": "_campaignId",
          "type": "uint256"
        }
      ],
      "name": "getCampaignBalance",
      "outputs": [
        {
          "name": "",
          "type": "uint256"
        }
      ],
      "payable": false,
      "stateMutability": "view",
      "type": "function"
    }
  ],
  "bytecode": "0x6060604052606460095533600560006101000a81548173ffffffffffffffffffffffffffffffffffffffff021916908373ffffffffffffffffffffffffffffffffffffffff1602179055506120e5806100596000396000f300606060405260043610610175576000357c0100000000000000000000000000000000000000000000000000000000900463ffffffff16806302932f561461017a57806306fdde03146101a3578063095ea7b31461023157806318160ddd146102735780632a6dd48f1461029c5780632d85ea12146102ff5780633da70bd51461034c57806346bb2833146103995780635598f8cc146103ee5780635a3f26721461054a5780636352211e146105d857806370a082311461063b5780637204ca151461068857806381cdb4c3146106b15780638da5cb5b146107a457806390722b75146107f9578063914175421461083057806395d89b4114610886578063a5f8777514610914578063a9059cbb146109f2578063a9cd4a1f14610a34578063ae18e08314610a57578063b2e6ceeb14610a7a578063bd6c67e914610a9d578063ced3c6ad14610ad4578063e4b50cb814610b37578063eb044b9714610bb6578063f2fde38b14610bed578063fea62cae14610c26575b600080fd5b341561018557600080fd5b61018d610c7c565b6040518082815260200191505060405180910390f35b34156101ae57600080fd5b6101b6610c9c565b6040518080602001828103825283818151815260200191508051906020019080838360005b838110156101f65780820151818401526020810190506101db565b50505050905090810190601f1680156102235780820380516001836020036101000a031916815260200191505b509250505060405180910390f35b341561023c57600080fd5b610271600480803573ffffffffffffffffffffffffffffffffffffffff16906020019091908035906020019091905050610cdf565b005b341561027e57600080fd5b610286610e72565b6040518082815260200191505060405180910390f35b34156102a757600080fd5b6102bd6004808035906020019091905050610e7b565b604051808273ffffffffffffffffffffffffffffffffffffffff1673ffffffffffffffffffffffffffffffffffffffff16815260200191505060405180910390f35b341561030a57600080fd5b610336600480803573ffffffffffffffffffffffffffffffffffffffff16906020019091905050610eb8565b6040518082815260200191505060405180910390f35b341561035757600080fd5b610383600480803573ffffffffffffffffffffffffffffffffffffffff16906020019091905050610f01565b6040518082815260200191505060405180910390f35b34156103a457600080fd5b6103ac610f19565b604051808273ffffffffffffffffffffffffffffffffffffffff1673ffffffffffffffffffffffffffffffffffffffff16815260200191505060405180910390f35b34156103f957600080fd5b61040f6004808035906020019091905050610f3f565b604051808773ffffffffffffffffffffffffffffffffffffffff1673ffffffffffffffffffffffffffffffffffffffff1681526020018060200180602001861515151581526020018515151515815260200184151515158152602001838103835288818151815260200191508051906020019080838360005b838110156104a3578082015181840152602081019050610488565b50505050905090810190601f1680156104d05780820380516001836020036101000a031916815260200191505b50838103825287818151815260200191508051906020019080838360005b838110156105095780820151818401526020810190506104ee565b50505050905090810190601f1680156105365780820380516001836020036101000a031916815260200191505b509850505050505050505060405180910390f35b341561055557600080fd5b610581600480803573ffffffffffffffffffffffffffffffffffffffff16906020019091905050611121565b6040518080602001828103825283818151815260200191508051906020019060200280838360005b838110156105c45780820151818401526020810190506105a9565b505050509050019250505060405180910390f35b34156105e357600080fd5b6105f960048080359060200190919050506111be565b604051808273ffffffffffffffffffffffffffffffffffffffff1673ffffffffffffffffffffffffffffffffffffffff16815260200191505060405180910390f35b341561064657600080fd5b610672600480803573ffffffffffffffffffffffffffffffffffffffff1690602001909190505061123c565b6040518082815260200191505060405180910390f35b341561069357600080fd5b61069b611288565b6040518082815260200191505060405180910390f35b34156106bc57600080fd5b6106e5600480803590602001909190803567ffffffffffffffff1690602001909190505061128e565b604051808681526020018567ffffffffffffffff1667ffffffffffffffff1681526020018467ffffffffffffffff1667ffffffffffffffff16815260200180602001838152602001828103825284818151815260200191508051906020019080838360005b8381101561076557808201518184015260208101905061074a565b50505050905090810190601f1680156107925780820380516001836020036101000a031916815260200191505b50965050505050505060405180910390f35b34156107af57600080fd5b6107b761139e565b604051808273ffffffffffffffffffffffffffffffffffffffff1673ffffffffffffffffffffffffffffffffffffffff16815260200191505060405180910390f35b341561080457600080fd5b61081a60048080359060200190919050506113c4565b6040518082815260200191505060405180910390f35b341561083b57600080fd5b610870600480803573ffffffffffffffffffffffffffffffffffffffff169060200190919080359060200190919050506113dc565b6040518082815260200191505060405180910390f35b341561089157600080fd5b61089961140d565b6040518080602001828103825283818151815260200191508051906020019080838360005b838110156108d95780820151818401526020810190506108be565b50505050905090810190601f1680156109065780820380516001836020036101000a031916815260200191505b509250505060405180910390f35b341561091f57600080fd5b61093e6004808035906020019091908035906020019091905050611450565b60405180868152602001858152602001848152602001838152602001806020018281038252838181546001816001161561010002031660029004815260200191508054600181600116156101000203166002900480156109df5780601f106109b4576101008083540402835291602001916109df565b820191906000526020600020905b8154815290600101906020018083116109c257829003601f168201915b5050965050505050505060405180910390f35b34156109fd57600080fd5b610a32600480803573ffffffffffffffffffffffffffffffffffffffff169060200190919080359060200190919050506114a1565b005b3415610a3f57600080fd5b610a5560048080359060200190919050506114f4565b005b3415610a6257600080fd5b610a78600480803590602001909190505061156b565b005b3415610a8557600080fd5b610a9b60048080359060200190919050506116b5565b005b3415610aa857600080fd5b610abe60048080359060200190919050506116e0565b6040518082815260200191505060405180910390f35b3415610adf57600080fd5b610af560048080359060200190919050506116f8565b604051808273ffffffffffffffffffffffffffffffffffffffff1673ffffffffffffffffffffffffffffffffffffffff16815260200191505060405180910390f35b3415610b4257600080fd5b610b58600480803590602001909190505061172b565b604051808681526020018581526020018481526020018373ffffffffffffffffffffffffffffffffffffffff1673ffffffffffffffffffffffffffffffffffffffff1681526020018281526020019550505050505060405180910390f35b3415610bc157600080fd5b610bd760048080359060200190919050506117a0565b6040518082815260200191505060405180910390f35b3415610bf857600080fd5b610c24600480803573ffffffffffffffffffffffffffffffffffffffff169060200190919050506117bd565b005b3415610c3157600080fd5b610c66600480803573ffffffffffffffffffffffffffffffffffffffff16906020019091908035906020019091905050611915565b6040518082815260200191505060405180910390f35b6000610c97600160078054905061197790919063ffffffff16565b905090565b610ca4612014565b6040805190810160405280600c81526020017f4920476176652041737365740000000000000000000000000000000000000000815250905090565b6000813373ffffffffffffffffffffffffffffffffffffffff16610d02826111be565b73ffffffffffffffffffffffffffffffffffffffff16141515610d2457600080fd5b610d2d836111be565b91508173ffffffffffffffffffffffffffffffffffffffff168473ffffffffffffffffffffffffffffffffffffffff1614151515610d6a57600080fd5b6000610d7584610e7b565b73ffffffffffffffffffffffffffffffffffffffff16141580610daf575060008473ffffffffffffffffffffffffffffffffffffffff1614155b15610e6c57836002600085815260200190815260200160002060006101000a81548173ffffffffffffffffffffffffffffffffffffffff021916908373ffffffffffffffffffffffffffffffffffffffff1602179055508373ffffffffffffffffffffffffffffffffffffffff168273ffffffffffffffffffffffffffffffffffffffff167f8c5be1e5ebec7d5bd14f71427d1e84f3dd0314c0f7b2291e5b200ac8c7c3b925856040518082815260200191505060405180910390a35b50505050565b60008054905090565b60006002600083815260200190815260200160002060009054906101000a900473ffffffffffffffffffffffffffffffffffffffff169050919050565b6000600c60008373ffffffffffffffffffffffffffffffffffffffff1673ffffffffffffffffffffffffffffffffffffffff168152602001908152602001600020549050919050565b600c6020528060005260406000206000915090505481565b600660009054906101000a900473ffffffffffffffffffffffffffffffffffffffff1681565b6000610f49612014565b610f51612014565b600080600080600788815481101515610f6657fe5b906000526020600020906004020190508060000160009054906101000a900473ffffffffffffffffffffffffffffffffffffffff169650806001018054600181600116156101000203166002900480601f0160208091040260200160405190810160405280929190818152602001828054600181600116156101000203166002900480156110355780601f1061100a57610100808354040283529160200191611035565b820191906000526020600020905b81548152906001019060200180831161101857829003601f168201915b50505050509550806002018054600181600116156101000203166002900480601f0160208091040260200160405190810160405280929190818152602001828054600181600116156101000203166002900480156110d45780601f106110a9576101008083540402835291602001916110d4565b820191906000526020600020905b8154815290600101906020018083116110b757829003601f168201915b505050505094508060030160009054906101000a900460ff1693508060030160019054906101000a900460ff1692508060030160029054906101000a900460ff1691505091939550919395565b611129612028565b600360008373ffffffffffffffffffffffffffffffffffffffff1673ffffffffffffffffffffffffffffffffffffffff1681526020019081526020016000208054806020026020016040519081016040528092919081815260200182805480156111b257602002820191906000526020600020905b81548152602001906001019080831161119e575b50505050509050919050565b6000806001600084815260200190815260200160002060009054906101000a900473ffffffffffffffffffffffffffffffffffffffff169050600073ffffffffffffffffffffffffffffffffffffffff168173ffffffffffffffffffffffffffffffffffffffff161415151561123357600080fd5b80915050919050565b6000600360008373ffffffffffffffffffffffffffffffffffffffff1673ffffffffffffffffffffffffffffffffffffffff168152602001908152602001600020805490509050919050565b60095481565b600080600061129b612014565b600080600e60008981526020019081526020016000208767ffffffffffffffff168154811015156112c857fe5b90600052602060002090600502019050806000015495508060020154945080600301549350806004018054600181600116156101000203166002900480601f0160208091040260200160405190810160405280929190818152602001828054600181600116156101000203166002900480156113855780601f1061135a57610100808354040283529160200191611385565b820191906000526020600020905b81548152906001019060200180831161136857829003601f168201915b5050505050925080600101549150509295509295909350565b600560009054906101000a900473ffffffffffffffffffffffffffffffffffffffff1681565b600f6020528060005260406000206000915090505481565b600b602052816000526040600020818154811015156113f757fe5b9060005260206000209001600091509150505481565b611415612014565b6040805190810160405280600381526020017f493c330000000000000000000000000000000000000000000000000000000000815250905090565b600e6020528160005260406000208181548110151561146b57fe5b90600052602060002090600502016000915091505080600001549080600101549080600201549080600301549080600401905085565b803373ffffffffffffffffffffffffffffffffffffffff166114c2826111be565b73ffffffffffffffffffffffffffffffffffffffff161415156114e457600080fd5b6114ef338484611990565b505050565b600560009054906101000a900473ffffffffffffffffffffffffffffffffffffffff1673ffffffffffffffffffffffffffffffffffffffff163373ffffffffffffffffffffffffffffffffffffffff1614151561155057600080fd5b6103e8811115151561156157600080fd5b8060098190555050565b6000808211151561157b57600080fd5b3373ffffffffffffffffffffffffffffffffffffffff16600a600084815260200190815260200160002060009054906101000a900473ffffffffffffffffffffffffffffffffffffffff1673ffffffffffffffffffffffffffffffffffffffff161415156115e857600080fd5b6000600d60008481526020019081526020016000205411151561160a57600080fd5b600d60008381526020019081526020016000205490506000600d6000848152602001908152602001600020819055503373ffffffffffffffffffffffffffffffffffffffff166108fc829081150290604051600060405180830381858888f19350505050151561167957600080fd5b817fccf4374900bd722270142f35dcf4fc2e2b5a3c60ab03daccfa8d4dce0dfe738a826040518082815260200191505060405180910390a25050565b6116bf3382611ad9565b15156116ca57600080fd5b6116dd6116d6826111be565b3383611990565b50565b600d6020528060005260406000206000915090505481565b600a6020528060005260406000206000915054906101000a900473ffffffffffffffffffffffffffffffffffffffff1681565b60008060008060008060088781548110151561174357fe5b906000526020600020906005020190508060000154955080600101549450806003015493508060020160009054906101000a900473ffffffffffffffffffffffffffffffffffffffff169250806004015491505091939590929450565b6000600d6000838152602001908152602001600020549050919050565b600560009054906101000a900473ffffffffffffffffffffffffffffffffffffffff1673ffffffffffffffffffffffffffffffffffffffff163373ffffffffffffffffffffffffffffffffffffffff1614151561181957600080fd5b600073ffffffffffffffffffffffffffffffffffffffff168173ffffffffffffffffffffffffffffffffffffffff161415151561185557600080fd5b8073ffffffffffffffffffffffffffffffffffffffff16600560009054906101000a900473ffffffffffffffffffffffffffffffffffffffff1673ffffffffffffffffffffffffffffffffffffffff167f8be0079c531659141344cd1fd0a4f28419497f9722a3daafe3b4186f6b6457e060405160405180910390a380600560006101000a81548173ffffffffffffffffffffffffffffffffffffffff021916908373ffffffffffffffffffffffffffffffffffffffff16021790555050565b6000600b60008473ffffffffffffffffffffffffffffffffffffffff1673ffffffffffffffffffffffffffffffffffffffff1681526020019081526020016000208281548110151561196357fe5b906000526020600020900154905092915050565b600082821115151561198557fe5b818303905092915050565b600073ffffffffffffffffffffffffffffffffffffffff168273ffffffffffffffffffffffffffffffffffffffff16141515156119cc57600080fd5b6119d5816111be565b73ffffffffffffffffffffffffffffffffffffffff168273ffffffffffffffffffffffffffffffffffffffff1614151515611a0f57600080fd5b8273ffffffffffffffffffffffffffffffffffffffff16611a2f826111be565b73ffffffffffffffffffffffffffffffffffffffff16141515611a5157600080fd5b611a5b8382611b1a565b611a658382611c03565b611a6f8282611e8b565b8173ffffffffffffffffffffffffffffffffffffffff168373ffffffffffffffffffffffffffffffffffffffff167fddf252ad1be2c89b69c2b068fc378daa952ba7f163c4a11628f55a4df523b3ef836040518082815260200191505060405180910390a3505050565b60008273ffffffffffffffffffffffffffffffffffffffff16611afb83610e7b565b73ffffffffffffffffffffffffffffffffffffffff1614905092915050565b8173ffffffffffffffffffffffffffffffffffffffff16611b3a826111be565b73ffffffffffffffffffffffffffffffffffffffff16141515611b5c57600080fd5b60006002600083815260200190815260200160002060006101000a81548173ffffffffffffffffffffffffffffffffffffffff021916908373ffffffffffffffffffffffffffffffffffffffff16021790555060008273ffffffffffffffffffffffffffffffffffffffff167f8c5be1e5ebec7d5bd14f71427d1e84f3dd0314c0f7b2291e5b200ac8c7c3b925836040518082815260200191505060405180910390a35050565b60008060008473ffffffffffffffffffffffffffffffffffffffff16611c28856111be565b73ffffffffffffffffffffffffffffffffffffffff16141515611c4a57600080fd5b60046000858152602001908152602001600020549250611c7c6001611c6e8761123c565b61197790919063ffffffff16565b9150600360008673ffffffffffffffffffffffffffffffffffffffff1673ffffffffffffffffffffffffffffffffffffffff16815260200190815260200160002082815481101515611cca57fe5b906000526020600020900154905060006001600086815260200190815260200160002060006101000a81548173ffffffffffffffffffffffffffffffffffffffff021916908373ffffffffffffffffffffffffffffffffffffffff16021790555080600360008773ffffffffffffffffffffffffffffffffffffffff1673ffffffffffffffffffffffffffffffffffffffff16815260200190815260200160002084815481101515611d7857fe5b9060005260206000209001819055506000600360008773ffffffffffffffffffffffffffffffffffffffff1673ffffffffffffffffffffffffffffffffffffffff16815260200190815260200160002083815481101515611dd557fe5b906000526020600020900181905550600360008673ffffffffffffffffffffffffffffffffffffffff1673ffffffffffffffffffffffffffffffffffffffff168152602001908152602001600020805480919060019003611e36919061203c565b5060006004600086815260200190815260200160002081905550826004600083815260200190815260200160002081905550611e7e600160005461197790919063ffffffff16565b6000819055505050505050565b60008073ffffffffffffffffffffffffffffffffffffffff166001600084815260200190815260200160002060009054906101000a900473ffffffffffffffffffffffffffffffffffffffff1673ffffffffffffffffffffffffffffffffffffffff16141515611efa57600080fd5b826001600084815260200190815260200160002060006101000a81548173ffffffffffffffffffffffffffffffffffffffff021916908373ffffffffffffffffffffffffffffffffffffffff160217905550611f558361123c565b9050600360008473ffffffffffffffffffffffffffffffffffffffff1673ffffffffffffffffffffffffffffffffffffffff1681526020019081526020016000208054806001018281611fa89190612068565b916000526020600020900160008490919091505550806004600084815260200190815260200160002081905550611feb6001600054611ff690919063ffffffff16565b600081905550505050565b600080828401905083811015151561200a57fe5b8091505092915050565b602060405190810160405280600081525090565b602060405190810160405280600081525090565b815481835581811511612063578183600052602060002091820191016120629190612094565b5b505050565b81548183558181151161208f5781836000526020600020918201910161208e9190612094565b5b505050565b6120b691905b808211156120b257600081600090555060010161209a565b5090565b905600a165627a7a723058201903010e9aacbd89d10aa5d63e52275d473777db22533a635bda45ca4d08f8cf0029",
  "source": "pragma solidity ^0.4.19;\n\nimport '../util/Ownable.sol';\nimport '../util/SafeMath.sol';\nimport './Asset.sol';\n\ncontract Fundraiser is Asset, Ownable {\n  using SafeMath for uint256;\n\n  address public founderAddress; // Contract launcher\n\n  Campaign[] campaigns; // Campaigns tracked by the dapp\n  Token[] tokens;       // ERC721 Tokens tracked by the dapp\n\n  uint256 public maxCertificates = 100; // Max certificates a campaign may issue. Does not effect supply\n\n  mapping (uint256 => address)  public      campaignIndexToOwner;         // owner address for campaign\n  mapping (address => uint256[]) public     campaignOwnerToIndexes;       // list of campaign ids for address\n  mapping (address => uint256) public       campaignOwnerTotalCampaigns;  // count of campaigns by owner\n  mapping (uint256 => uint256) public       campaignBalance;              // current campaign balance\n  mapping (uint256 => Certificate[]) public campaignCertificates;         // list of certificates for each campaign\n  mapping (uint256 => uint256) public        campaignCertificateCount;     // count of certificates for each campaign\n\n  event CreateCampaign(address indexed owner, uint256 indexed campaignId); // Campaign has been created\n  event CreateCertificate(uint256 indexed campaignId, string name);        // Certificate added to campaign\n  event UpdateCertificate(uint256 indexed campaignId, uint256 indexed certificateIdx); // Certificate has been updated\n  event CreateToken(uint256 indexed campaignId, uint256 indexed certificateIdx, address owner); // Token has been purchased\n  event WithdrawBalance(uint256 indexed campaignId, uint256 balance); // Campaign owner withdraws campaign balance\n\n  struct Token {\n    uint256 campaignId;\n    uint256 value;\n    address purchaser;\n    uint256 unitNumber;\n    uint256 certificateIdx;\n  }\n\n  // Should fit in 512 with FE sanitizing\n  struct Campaign {\n    address owner;\n    string campaignName;\n    string taxId;\n    bool active;\n    bool veto;\n    bool ready;\n  }\n\n  // Make this fit in 512B\n  struct Certificate {\n    uint256 campaignId;\n    uint256 price;\n    uint256 supply;\n    uint256 remaining;\n    string name;\n  }\n\n  // Issues an ERC-721 token\n  function _createToken(\n    uint256 _campaignId,\n    uint256 _certificateIdx,\n    uint256 _unitNumber,\n    address _owner,\n    uint256 _value\n  )\n    internal\n    returns (uint256)\n  {\n    Token memory _token = Token({\n      campaignId: _campaignId,\n      value: _value,\n      purchaser: _owner,\n      certificateIdx: _certificateIdx,\n      unitNumber: _unitNumber\n    });\n\n    uint256 remaining = campaignCertificates[_campaignId][_certificateIdx].remaining;\n    campaignCertificates[_campaignId][_certificateIdx].remaining = remaining.sub(1);\n\n    uint256 newTokenId = tokens.push(_token);\n\n    _mint(_owner, newTokenId);\n\n    CreateToken(_campaignId, _certificateIdx, _owner);\n\n    return newTokenId;\n  }\n\n  // Tracks a new campaign\n  function _createCampaign(\n    address _owner,\n    string _campaignName,\n    string _taxId\n  )\n    internal\n    returns (uint256)\n  {\n    Campaign memory _campaign = Campaign({\n      owner: _owner,\n      campaignName: _campaignName,\n      taxId: _taxId,\n      active: false,\n      veto: false,\n      ready: false\n    });\n\n    uint256 newCampaignId = campaigns.push(_campaign);\n    newCampaignId = newCampaignId.sub(1);\n\n    campaignIndexToOwner[newCampaignId] = _owner;\n    campaignOwnerToIndexes[_owner].push(newCampaignId);\n    campaignOwnerTotalCampaigns[_owner] = campaignOwnerTotalCampaigns[_owner].add(1);\n\n    CreateCampaign(_owner, newCampaignId);\n\n    return newCampaignId;\n  }\n\n  // Adds a certificate to an inactive campaign\n  function _createCertificate(\n    uint256 _campaignId,\n    uint256 _supply,\n    string _name,\n    uint256 _price\n  )\n    internal\n    returns (uint256)\n  {\n\n    Certificate memory _certificate = Certificate({\n      campaignId: _campaignId,\n      supply: _supply,\n      remaining: _supply,\n      name: _name,\n      price: _price\n    });\n\n    uint256 certificateIndex = campaignCertificates[_campaignId].push(_certificate);\n\n    campaignCertificateCount[_campaignId] = campaignCertificateCount[_campaignId].add(1);\n\n    CreateCertificate(_campaignId, _name);\n\n    return certificateIndex;\n  }\n\n  // Changes the attributes of an existing certificate\n  function _updateCertificate(\n    uint256 _campaignId,\n    uint256 _certificateIdx,\n    uint256 _supply,\n    string _name,\n    uint256 _price\n  )\n    internal\n  {\n    require(_certificateIdx < campaignCertificateCount[_campaignId]);\n\n    campaignCertificates[_campaignId][_certificateIdx].supply = _supply;\n    campaignCertificates[_campaignId][_certificateIdx].name = _name;\n    campaignCertificates[_campaignId][_certificateIdx].price = _price;\n\n    UpdateCertificate(_campaignId, _certificateIdx);\n  }\n\n  // Campaign owner withdraws campaign balance;\n  function withdrawCampaignBalance(uint256 _campaignId) public {\n    require(_campaignId > 0);\n    require(campaignIndexToOwner[_campaignId] == msg.sender);\n    require(campaignBalance[_campaignId] > 0);\n    uint256 _balance = campaignBalance[_campaignId];\n    campaignBalance[_campaignId] = 0;\n    msg.sender.transfer(_balance);\n\n    WithdrawBalance(_campaignId, _balance);\n  }\n\n  // Hard cap at 1000 Certificates. Well under Veto gas limits.\n  function changeMaxCertificates(uint256 _maxCertificates) public onlyOwner {\n    require(_maxCertificates <= 1000);\n    maxCertificates = _maxCertificates;\n  }\n\n  // Views\n  function getCampaign(uint256 _id)\n    public\n    view\n    returns\n  (\n    address owner,\n    string campaignName,\n    string taxId,\n    bool active,\n    bool veto,\n    bool ready\n  ) {\n    Campaign storage campaign = campaigns[_id];\n\n    owner = campaign.owner;\n    campaignName = campaign.campaignName;\n    taxId = campaign.taxId;\n    active = campaign.active;\n    veto = campaign.veto;\n    ready = campaign.ready;\n  }\n\n  function getCertificate(uint256 _campaignId, uint64 _certificateIdx)\n    public\n    view\n    returns\n  (\n    uint256 campaignId,\n    uint64 supply,\n    uint64 remaining,\n    string name,\n    uint256 price\n  ){\n\n    Certificate storage certificate = campaignCertificates[_campaignId][_certificateIdx];\n\n    campaignId = uint256(certificate.campaignId);\n    supply = uint64(certificate.supply);\n    remaining = uint64(certificate.remaining);\n    name = certificate.name;\n    price = uint256(certificate.price);\n  }\n\n  function getToken(uint256 _id)\n    public\n    view\n    returns\n  (\n    uint256 campaignId,\n    uint256 value,\n    uint256 unitNumber,\n    address purchaser,\n    uint256 certificateIdx\n  ){\n    Token storage token = tokens[_id];\n\n    campaignId = uint256(token.campaignId);\n    value = uint256(token.value);\n    unitNumber = uint256(token.unitNumber);\n    purchaser = address(token.purchaser);\n    certificateIdx = uint256(token.certificateIdx);\n  }\n\n  function getTotalCampaignsForOwner(address _owner)\n    public\n    view\n    returns (\n    uint256 total\n  ){\n    total = campaignOwnerTotalCampaigns[_owner];\n  }\n\n  function getCampaignIdByOwnerIndex(address _owner, uint256 _index)\n    public\n    view\n    returns\n  (\n    uint256 id\n  ){\n    id = campaignOwnerToIndexes[_owner][_index];\n  }\n\n  function totalCampaigns() public view returns (uint256) {\n    return campaigns.length.sub(1);\n  }\n\n  function getCampaignBalance(uint256 _campaignId) public view returns (uint256) {\n    return campaignBalance[_campaignId];\n  }\n}",
  "sourcePath": "/home/hayek/proj/fundraiser_audit/contracts/dapp/Fundraiser.sol",
  "compiler": {
    "name": "solc",
    "version": "0.4.19+commit.c4cbbb05.Emscripten.clang"
  },
  "schemaVersion": "1.0.1",
  "updatedAt": "2018-03-30T06:21:27.361Z"
}